:100000002CC100005AC1000058C1000056C10000B8
:1000100054C1000052C1000050C100004EC1000098
:100020004CC1000004C7000002C7000000C7000068
:1000300044C1000042C1000040C100003EC10000B8
:100040003CC100003AC1000038C1000036C10000C8
:1000500034C1000032C1000030C100009EC6000063
:100060002CC1000071C6000046C6000026C1000079
:1000700024C1000022C1000020C100001EC10000F8
:100080001CC100001AC1000018C1000016C1000008
:1000900009C60000DEC5000010C100000EC100004E
:1000A0000CC100000AC1000008C1000006C1000028
:1000B00004C1000002C1000000C10000FEC0000039
:1000C000FCC00000FAC00000F8C00000F6C000004C
:1000D000F4C00000F2C00000F0C00000EEC000005C
:1000E000ECC000003503380327032B0331036F03F3
:1000F0003C03400346034A034E03540358035C0386
:100100006F03620366036A030000200023002600D9
:1001100029002C002F00320000010000030106011D
:10012000090100000A0B02090C0D0E080703040167
:1001300000000000000000000000000000000000BF
:10014000000000000000000000000000000012118C
:10015000100000000000000000000000000000008F
:10016000000000000000000000000000000000008F
:100170000000000000000000000022002500280010
:100180002B002E003100340002010000050108019F
:100190000B0100002100240027002A002D00300060
:1001A000330001010000040107010A0105050505EE
:1001B000070508080808020202020A0A08080404DF
:1001C000040401010101010101010303030303030D
:1001D0000303040707070C0C0C0C0C0C0C0C02029C
:1001E000020206060606060606060B0B0B0B0B0B99
:1001F0000B0B07070A0A0A0A0A0A05050504040484
:10020000080801021020200808102040102040801B
:1002100002010201080402010102040810204080CA
:100220008040201008040201800402018040201058
:1002300008040201080402010102040810204080A1
:10024000010204081020408010080408801020409B
:100250000440801020400480950711241FBECFEF7A
:10026000D1E2DEBFCDBF00E00CBF12E0A0E0B2E003
:10027000EAE9F9E100E00BBF02C007900D92AE324F
:10028000B107D9F724E0AEE2B2E001C01D92A2307E
:10029000B207E1F711E0CDE2D1E000E006C021971E
:1002A0000109802FFE010E94880CCC32D10780E02A
:1002B0000807A9F71FD70C94CB0CA2CEFC01A0898C
:1002C000B18982E08C93A485B5851C92A685B785FB
:1002D00080E18C93108EA489B58986E08C93A289E5
:1002E000B3898C9180618C93A289B3898C91886049
:1002F0008C93A289B3898C9180688C930288F3894E
:10030000E02D80818F7D808308950F931F93CF937D
:10031000782FFC0180E0C7E09E2F971B9617C8F44A
:10032000519148E0282F30E08901000F012F001F74
:10033000110BA52FA170B0E00A171B0729F0C90106
:10034000880F991F8C2701C0880F5695415051F78F
:10035000E3CFCF911F910F91089590E0FC01EE5FE4
:10036000FD4F2491FC01E455FE4F8491882399F0C0
:1003700090E0880F991FFC01EE56FE4FA591B491B5
:10038000FC01E858FE4F859194918FB7F894EC9159
:10039000E22BEC938FBF0895CF92DF92EF92FF9202
:1003A0000F931F93CF93DF936C017A018B01C0E011
:1003B000D0E0CE15DF0589F0D8016D918D01D60111
:1003C000ED91FC910190F081E02DC6011995892BEA
:1003D00011F47E0102C02196ECCFC701DF91CF91CD
:1003E0001F910F91FF90EF90DF90CF900895FC0147
:1003F000A089B1898C91A689B78982FD0FC09C9193
:10040000818D8F5F8F73228D821749F0218DDF01DF
:10041000A20FB11D5D969C93818F08958C910895D4
:10042000FC01538D448D252F30E0842F90E0821BFA
:10043000930B541710F0CF96089501970895FC017F
:10044000918D828D981761F0828DDF01A80FB11D0B
:100450005D968C91928D9F5F9F73928F90E008952F
:100460008FEF9FEF0895FC01918D828D981731F0E9
:10047000828DE80FF11D858D90E008958FEF9FEF3D
:100480000895FC01918D228D892F90E0805C9F4F13
:10049000821B91098F739927089588E193E0F1DF1A
:1004A00021E0892B09F420E0822F08958BE792E068
:1004B000E8DF21E0892B09F420E0822F0895FC0178
:1004C000848DDF01A80FB11DA35ABF4F2C91848DDD
:1004D00090E001968F739927848FA689B7892C9312
:1004E000A089B1898C9180648C93938D848D9813AD
:1004F00006C00288F389E02D80818F7D8083089576
:10050000EF92FF920F931F93CF93DF93EC0181E063
:10051000888F9B8D8C8D981305C0E889F98980811F
:1005200085FD23C0F62E0B8D10E00F5F1F4F0F735C
:100530001127E02E8C8DE8120BC00FB607FCFACF06
:10054000E889F989808185FFF5CFCE01B8DFF2CF48
:100550008B8DFE01E80FF11DE35AFF4FF0820B8FE8
:10056000EA89FB898081806207C0EE89FF89608308
:10057000E889F98980818064808381E090E0DF915F
:10058000CF911F910F91FF90EF900895CF93DF933C
:10059000EC01888D8823C1F0EA89FB89808185FD83
:1005A00005C0A889B9898C9186FD0EC00FB607FCDD
:1005B000F5CF808185FFF2CFA889B9898C9185FF1D
:1005C000EDCFCE017CDFE8CFDF91CF91089580E0C1
:1005D00090E0892B19F06ADF811120C080E090E063
:1005E000892B19F05ADF81111CC080E090E0892B23
:1005F00041F080E090E0892B21F00E940000811101
:1006000013C080E090E0892BA1F080E090E0892B7E
:1006100081F00E94000081110AC008950E9400002C
:10062000DDCF0E940000E1CF0E940000EACF0C94D1
:100630000000089590E0FC013197E231F10508F0E7
:100640004EC08827EE58FF4F8F4F0C94880C809136
:1006500080008F7703C0809180008F7D8093800021
:10066000089580918000877FF9CF84B58F7702C08D
:1006700084B58F7D84BD08958091B0008F7703C0CD
:100680008091B0008F7D8093B0000895809190009C
:100690008F7707C0809190008F7D03C0809190007C
:1006A000877F8093900008958091A0008F7707C086
:1006B0008091A0008F7D03C08091A000877F8093F0
:1006C000A0000895809120018F7707C080912001BC
:1006D0008F7D03C080912001877F80932001089542
:1006E0001F93CF93DF93282F30E0F901EE5DFE4F8B
:1006F0008491F901EE5FFD4FD491F901E455FE4F6D
:10070000C491CC23C1F0162F811194DFEC2FF0E0BF
:10071000EE0FFF1FE858FE4FA591B4918FB7F894E4
:10072000111105C09C91ED2FE095E92302C0EC91D9
:10073000ED2BEC938FBFDF91CF911F9108953FB7C1
:10074000F8948091730290917402A0917502B09117
:10075000760226B5A89B05C02F3F19F00196A11D72
:10076000B11D3FBFBA2FA92F982F8827820F911D47
:10077000A11DB11DBC01CD0142E0660F771F881F8E
:10078000991F4A95D1F708958F929F92AF92BF9289
:10079000CF92DF92EF92FF926B017C01D0DF4B0191
:1007A0005C01C114D104E104F104E9F0C8DFDC010B
:1007B000CB0188199909AA09BB09883E9340A10574
:1007C000B10578F321E0C21AD108E108F10888EEFA
:1007D000880E83E0981EA11CB11CC114D104E10451
:1007E000F10421F7DECFFF90EF90DF90CF90BF9024
:1007F000AF909F908F9008955F926F927F928F92AB
:100800009F92AF92BF92CF92DF92EF92FF920F939F
:100810001F93CF93DF93CDB7DEB760970FB6F894F1
:10082000DEBF0FBECDBF4B0119861A861B861C8604
:1008300095E099878B8763E0CE01099666DD8C870A
:100840008091FF03882309F4A2C0E091C803F091CE
:10085000C903828D938D892B49F140917902509182
:100860007A024E175F0711F14115510571F0DA0157
:1008700053962D913C915497D9019C91DA0155964C
:100880008C9180958923D9018C93868D8E7F868F5C
:100890001092780210927702F0937A02E093790234
:1008A000A389B4899C918589892B8C930091BB0382
:1008B0001091BC03A090C803B090C903D501ED917D
:1008C000FC910084F185E02DC501199518161906D3
:1008D0004CF4D501ED91FC910284F385E02DC50126
:1008E0001995ECCFFE0139967F016E01FDE0CF0E28
:1008F000D11CD7016D917D01D501ED91FC91019045
:10090000F081E02DC5011995EC14FD0491F784E008
:10091000E82EF12CD501ED91FC910284F385E02DB8
:10092000C5011995B1E0EB1AF108A1F7B80180E013
:1009300090E02ADF10E0712CC12CD12CE12CF12C9D
:10094000512C612CD501ED91FC910084F185E02DB5
:10095000C5011995181619060CF086C0D501ED9140
:10096000FC910284F385E02DC5011995E82F212F14
:10097000372DA601B701852D962D08E0D1D71E2F62
:10098000122B732E6A017B01582E692EDBCFC0908B
:10099000BB03D090BC03A090C603B090C703D501A1
:1009A000ED91FC910084F185E02DC5011995181693
:1009B00019064CF4D501ED91FC910284F385E02DEC
:1009C000C5011995ECCFFE0139967F018E01035FB9
:1009D0001F4FD7016D917D01D501ED91FC910190E3
:1009E000F081E02DC5011995E016F10691F704E0BC
:1009F00010E0D501ED91FC910284F385E02DC50155
:100A0000199501501109A9F7B60180E090E0BCDE0C
:100A100010E0712CC12CD12CE12CF12C512C612C2B
:100A2000D501ED91FC910084F185E02DC50119956A
:100A300018161906CCF4D501ED91FC910284F385CA
:100A4000E02DC5011995E82F212F372DA601B701FB
:100A5000852D962D08E064D71E2F122B732E6A0168
:100A60007B01582E692EDCCF212F372DA601B7012F
:100A7000852D962D08E36FD72983212F372DA601C9
:100A8000B701852D962D00E366D72A83212F372DB8
:100A9000A601B701852D962D08E25DD72B83212F66
:100AA000372DA601B701852D962D00E254D72C8352
:100AB000212F372DA601B701852D962D08E14BD7A3
:100AC0002D83212F372DA601B701852D962D00E10D
:100AD00042D72E83212F372DA601B701852D962DC4
:100AE00008E039D72F83188767E0CE0101962D875C
:100AF0003E874F87588B09DC2D853E854F85588969
:100B0000811307C0F401208331834283538380E043
:100B100001C081E060960FB6F894DEBF0FBECDBF76
:100B2000DF91CF911F910F91FF90EF90DF90CF90C9
:100B3000BF90AF909F908F907F906F905F9008953F
:100B4000EF92FF920F931F93CF93DF93CDB7DEB752
:100B500028970FB6F894DEBF0FBECDBF8E010F5F92
:100B60001F4F98E0D8011D929A95E9F795E0998377
:100B70008B837C836D835E834F8367E0C801C5DB15
:100B800088878091FF03FE0139967F01882379F1E0
:100B90008091C8039091C903D8016D918D01DC014A
:100BA000ED91FC910190F081E02D19952091B50314
:100BB0003091B603820F931F9093B6038093B503D1
:100BC0000E151F0529F76091BB037091BC0380E0EF
:100BD00090E0DADD28960FB6F894DEBF0FBECDBFE9
:100BE000DF91CF911F910F91FF90EF900895809129
:100BF000C6039091C703F80161918F01DC01ED916B
:100C0000FC910190F081E02D19952091B503309170
:100C1000B603820F931F9093B6038093B5030E150E
:100C20001F0529F7D0CF089580E090E00895009740
:100C300061F0FC0101900020E9F73197AF01481BFA
:100C4000590BBC018BE792E0A7CB80E090E00895C0
:100C50009ED61F920F920FB60F9211240BB60F92D1
:100C60002F933F934F935F936F937F938F939F93B4
:100C7000AF93BF93EF93FF9388E193E020DCFF9164
:100C8000EF91BF91AF919F918F917F916F915F9104
:100C90004F913F912F910F900BBE0F900FBE0F9071
:100CA0001F9018951F920F920FB60F9211240BB63A
:100CB0000F922F933F934F935F936F937F938F93F5
:100CC0009F93AF93BF93EF93FF9388E193E08FDB04
:100CD000FF91EF91BF91AF919F918F917F916F9114
:100CE0005F914F913F912F910F900BBE0F900FBED0
:100CF0000F901F9018951F920F920FB60F9211240C
:100D00000BB60F922F933F934F935F936F937F9305
:100D10008F939F93AF93BF93EF93FF938BE792E0F3
:100D2000CEDBFF91EF91BF91AF919F918F917F911A
:100D30006F915F914F913F912F910F900BBE0F904C
:100D40000FBE0F901F9018951F920F920FB60F9223
:100D500011240BB60F922F933F934F935F936F9392
:100D60007F938F939F93AF93BF93EF93FF938BE703
:100D700092E03DDBFF91EF91BF91AF919F918F91F9
:100D80007F916F915F914F913F912F910F900BBE8B
:100D90000F900FBE0F901F9018951F920F920FB6D5
:100DA0000F9211242F933F938F939F93AF93BF93F1
:100DB00080916F0290917002A0917102B0917202C5
:100DC00030916E0223E0230F2D3720F40196A11DF0
:100DD000B11D05C026E8230F0296A11DB11D209369
:100DE0006E0280936F0290937002A0937102B09391
:100DF00072028091730290917402A0917502B09179
:100E000076020196A11DB11D809373029093740226
:100E1000A0937502B0937602BF91AF919F918F918D
:100E20003F912F910F900FBE0F901F9018951F921A
:100E30000F920FB60F9211240BB60F922F933F9380
:100E40004F935F936F937F938F939F93AF93BF93D2
:100E5000EF93FF93E0917902F0917A02309709F4D1
:100E600051C0968DA685B785858591FF04C09C915C
:100E7000892329F447C09C91892309F043C0A389A1
:100E8000B4899C918589809589238C9386899789DB
:100E90000197F1F7608D718DA685B785558538E08E
:100EA00020E0CB010197F1F7822F90E0959587958F
:100EB000282F4C91452309F02068315091F7868DF9
:100EC00081FD20958091780290E001968F7399279B
:100ED00030917702381749F0A0917802B0E0A25D16
:100EE000BD4F2C938093780203C0868D8160868FDE
:100EF000828D938D0197F1F7A389B4899C9185899F
:100F0000892B8C93FF91EF91BF91AF919F918F911E
:100F10007F916F915F914F913F912F910F900BBEF9
:100F20000F900FBE0F901F901895A8E1B3E0139695
:100F30001C921E92129748EE53E060E070E0149607
:100F40004D935D936D937C93179784E092E0119697
:100F50009C938E932DEC30E01D963C932E931C9722
:100F60002CEC30E01F963C932E931E9728EC30E03B
:100F700051963C932E93509729EC30E053963C9336
:100F80002E9352972AEC30E055963C932E9354972B
:100F90002EEC30E057963C932E93569759961C9220
:100FA00059975A961C925A975B961C925B975C963F
:100FB0001C925C97EBE7F2E0138212824483558324
:100FC000668377839183808385EC90E0958784871F
:100FD00084EC90E09787868780EC90E0918B808B03
:100FE00081EC90E0938B828B82EC90E0958B848BEC
:100FF00086EC90E0978B868B118E128E138E148E5A
:10100000E5EBF3E0118210824EEA57E461EE7DE3F6
:10101000428353836483758385E090E0978386835E
:101020001086128611861386148615861686108AF7
:101030001786148A138A41E451E060E070E0458B22
:10104000568B678B708F118E128E138E148E158EA9
:10105000168E178E10A211A212A213A214A215A20C
:1010600016A217A210A611A612A613A614A640E057
:1010700050E061E070E045A756A767A770AB44E178
:1010800050E060E070E041AB52AB63AB74AB15AACB
:1010900016AA17AA10AE11AE12AE13AE14AE43E5E7
:1010A00050E060E070E14093F2035093F3036093EB
:1010B000F4037093F50344E250E06DE071EC40936B
:1010C000F6035093F7036093F8037093F9031092BB
:1010D000FA031092FB031092FC031092FD0310928E
:1010E0000104109200041092FE031092FF03B28BD1
:1010F000A18B0895CF93DF93CDB7DEB7A5970FB639
:10110000F894DEBF0FBECDBF789484B5826084BDF5
:1011100084B5816084BD85B5826085BD85B58160FB
:1011200085BD80916E00816080936E001092810079
:101130008091810082608093810080918100816034
:1011400080938100809180008160809380008091F5
:10115000B10084608093B1008091B0008160809381
:10116000B000809191008260809391008091910005
:1011700081608093910080919000816080939000C5
:101180008091A10082608093A1008091A100816084
:101190008093A1008091A00081608093A000809145
:1011A00021018260809321018091210181608093DF
:1011B00021018091200181608093200180917A003B
:1011C000846080937A0080917A00826080937A00B4
:1011D00080917A00816080937A0080917A008068A3
:1011E00080937A001092C1008BE792E067D882E189
:1011F00092E01DDD8BE192E01ADD88E193E05ED89C
:101200004091CA035091CB036091CC037091CD0300
:1012100080E896DC4091E2035091E3036091E4039F
:101220007091E50380E98CDC4091D2035091D303A7
:101230006091D4037091D50344275F7066277727A8
:101240004093D2035093D3036093D4037093D50398
:1012500083E876DC4091DE035091DF036091E00388
:101260007091E10387E86CDC4091E6035091E7035D
:101270006091E8037091E90381E962DC4091EA033F
:101280005091EB036091EC037091ED0383E958DC1E
:101290004091EE035091EF036091F0037091F103E0
:1012A00082EA4EDC4091F2035091F3036091F40323
:1012B0007091F5038CEE44DC4091F6035091F703F6
:1012C0006091F8037091F90380EF3ADC86E245D82B
:1012D00086E343D861E086E203DA4091CA03509185
:1012E000CB036091CC037091CD0340644093CA035B
:1012F0005093CB036093CC037093CD0380E820DC44
:101300004091CA035091CB036091CC037091CD03FF
:101310004E7F4093CA035093CB036093CC037093EA
:10132000CD0380E80DDC8EEA97E4A1EEBDE3809367
:10133000B7039093B803A093B903B093BA03409155
:10134000F2035091F3036091F4037091F50362602E
:101350004093F2035093F3036093F4037093F50307
:101360008CEEEEDB2AE037ED43EA5CE36091B703F5
:101370007091B8038091B9039091BA03E0D025ED44
:1013800034E045EB51E461D22CEE31E548E35EE315
:101390003AD120E030E040E85FE3D0D09CD1162F76
:1013A000462F50E060E070E0762F652F542F4427E1
:1013B00044275F71662777278091E2039091E303CA
:1013C000A091E403B091E503907E482B592B6A2B42
:1013D0007B2B4093E2035093E3036093E403709309
:1013E000E50380E9ADDB612F70E080E090E0A1D102
:1013F00020E030E040E05FE328D26DD1862F8F718E
:101400004091E2035091E3036091E4037091E5039E
:10141000407E482B4093E2035093E3036093E40340
:101420007093E50380E98CDB84EF91E090930104F5
:10143000809300044091F2035091F3036091F40310
:101440007091F503407F42604093F2035093F303A1
:101450006093F4037093F5038CEE72DB60E086E238
:101460003FD91AA21BA21CA21DA28EE192E0DFDBD3
:101470008091FE03811105C0BE016E5D7F4F8FE636
:10148000BBD90AA11BA12CA13DA119A2CE01819615
:10149000B901A8014F70552766277727E4E03695F4
:1014A000279517950795EA95D1F701974A30510589
:1014B0006105710510F4405D01C0495CFC01408389
:1014C000011511052105310519F7B1DB8BE192E01A
:1014D000AEDB38E5E32E31E0F32E48E3C42E42E0E4
:1014E000D42E52EEA52E51E0B52E0BE811E0F701F7
:1014F0008491F6018490F50194909920A1F08111D6
:1015000099D8892D90E0880F991F885F9E4FFC0124
:10151000A591B4918C91882291E080E009F490E04B
:10152000692F782F02C060E070E0F1E06F2786E35A
:10153000D7D8C8010197F1F74AD8D9CF5058BB275F
:10154000AA270ED048C139D130F03ED120F031F475
:101550009F3F11F41EF42EC10EF4E095E7FB24C169
:10156000E92F4AD180F3BA176207730784079507FA
:1015700018F071F49EF562C10EF4E0950B2EBA2FAF
:10158000A02D0B01B90190010C01CA01A001112489
:10159000FF27591B99F0593F50F4503E68F11A1635
:1015A000F040A22F232F342F4427585FF3CF4695C6
:1015B00037952795A795F0405395C9F77EF41F16E8
:1015C000BA0B620B730B840BBAF09150A1F0FF0FB2
:1015D000BB1F661F771F881FC2F70EC0BA0F621F9E
:1015E000731F841F48F4879577956795B795F7958E
:1015F0009E3F08F0B3CF9395880F08F09927EE0F20
:101600009795879508950CD0E6C0DED040F0D5D0F0
:1016100030F021F45F3F19F0C7C0511110C1CAC0AA
:10162000EBD098F39923C9F35523B1F3951B550BD0
:10163000BB27AA2762177307840738F09F5F5F4FA5
:10164000220F331F441FAA1FA9F333D00E2E3AF0E6
:10165000E0E830D091505040E695001CCAF729D000
:10166000FE2F27D0660F771F881FBB1F261737074F
:101670004807AB07B0E809F0BB0B802DBF01FF277F
:1016800093585F4F2AF09E3F510568F08DC0D7C038
:101690005F3FECF3983EDCF3869577956795B795B9
:1016A000F7959F5FC9F7880F911D9695879597F9D4
:1016B0000895E1E0660F771F881FBB1F621773074D
:1016C0008407BA0720F0621B730B840BBA0BEE1F62
:1016D00088F7E095089598D088F09F5790F0B92F3B
:1016E0009927B751A0F0D1F0660F771F881F991F77
:1016F0001AF0BA95C9F712C0B13081F09FD0B1E0AD
:1017000008959CC0672F782F8827B85F39F0B93FBC
:10171000CCF3869577956795B395D9F73EF4909578
:101720008095709561957F4F8F4F9F4F0895E894F6
:1017300009C097FB3EF490958095709561957F4F19
:101740008F4F9F4F9923A9F0F92F96E9BB279395C7
:10175000F695879577956795B795F111F8CFFAF4D7
:10176000BB0F11F460FF1BC06F5F7F4F8F4F9F4F08
:1017700016C0882311F096E911C0772321F09EE866
:10178000872F762F05C0662371F096E8862F70E0CC
:1017900060E02AF09A95660F771F881FDAF7880FA6
:1017A0009695879597F9089597F99F6780E870E077
:1017B00060E008959FEF80EC089500240A941616C7
:1017C000170618060906089500240A94121613062F
:1017D000140605060895092E0394000C11F48823BD
:1017E00052F0BB0F40F4BF2B11F460FF04C06F5FD9
:1017F0007F4F8F4F9F4F089557FD9058440F551FAF
:1018000059F05F3F71F04795880F97FB991F61F082
:101810009F3F79F087950895121613061406551FF9
:10182000F2CF4695F1DF08C0161617061806991F65
:10183000F1CF86957105610508940895E894BB275A
:1018400066277727CB0197F908950BD0C4CFB5DF72
:1018500028F0BADF18F0952309F0A6CFABCF1124FA
:10186000EECFCADFA0F3959FD1F3950F50E0551F3F
:10187000629FF001729FBB27F00DB11D639FAA27E5
:10188000F00DB11DAA1F649F6627B00DA11D661F34
:10189000829F2227B00DA11D621F739FB00DA11D55
:1018A000621F839FA00D611D221F749F3327A00D0F
:1018B000611D231F849F600D211D822F762F6A2FAB
:1018C00011249F5750408AF0E1F088234AF0EE0F30
:1018D000FF1FBB1F661F771F881F91505040A9F73D
:1018E0009E3F510570F060CFAACF5F3FECF3983E6A
:1018F000DCF3869577956795B795F795E7959F5FA4
:10190000C1F7FE2B880F911D9695879597F908953D
:10191000EE0FFF1F881F8BBF0790F691E02D1994E3
:101920000F93083090F0982F872F762F652F542F24
:10193000432F322F22270850F4CF220F331F441F8A
:10194000551F661F771F881F991F0A95B2F70F91C1
:10195000089597FB10F8169400080F93083098F03C
:101960000850232F342F452F562F672F782F892F7C
:10197000902DF4CF05949795879577956795579512
:101980004795379527950A95AAF70F91089581E015
:0A19900090E0F89400C0F894FFCF37
:10199A00000000008002CC011002C60241021F02B0
:1019AA00330253746172742E2E2E000D0A004452B3
:0E19BA00565F535441545553203D2030780061
:00000001FF
